{
  "contractName": "SimpleStorage",
  "abi": [
    {
      "inputs": [
        {
          "internalType": "uint256",
          "name": "",
          "type": "uint256"
        }
      ],
      "name": "users",
      "outputs": [
        {
          "internalType": "string",
          "name": "name",
          "type": "string"
        },
        {
          "internalType": "uint256",
          "name": "age",
          "type": "uint256"
        }
      ],
      "stateMutability": "view",
      "type": "function"
    },
    {
      "inputs": [
        {
          "internalType": "uint256",
          "name": "x",
          "type": "uint256"
        },
        {
          "internalType": "string",
          "name": "y",
          "type": "string"
        }
      ],
      "name": "set",
      "outputs": [],
      "stateMutability": "nonpayable",
      "type": "function"
    },
    {
      "inputs": [],
      "name": "get",
      "outputs": [
        {
          "components": [
            {
              "internalType": "string",
              "name": "name",
              "type": "string"
            },
            {
              "internalType": "uint256",
              "name": "age",
              "type": "uint256"
            }
          ],
          "internalType": "struct SimpleStorage.User[]",
          "name": "",
          "type": "tuple[]"
        }
      ],
      "stateMutability": "view",
      "type": "function"
    },
    {
      "inputs": [
        {
          "internalType": "string",
          "name": "name",
          "type": "string"
        }
      ],
      "name": "getAge",
      "outputs": [
        {
          "internalType": "uint256",
          "name": "",
          "type": "uint256"
        }
      ],
      "stateMutability": "view",
      "type": "function"
    }
  ],
  "bytecode": "0x608060405234801561001057600080fd5b50610dcd806100206000396000f3fe608060405234801561001057600080fd5b506004361061004c5760003560e01c8063365b98b21461005157806364371977146100825780636d4ce63c1461009e578063d83880f0146100bc575b600080fd5b61006b600480360381019061006691906104bb565b6100ec565b604051610079929190610587565b60405180910390f35b61009c600480360381019061009791906106ec565b6101a8565b005b6100a661020e565b6040516100b391906108a0565b60405180910390f35b6100d660048036038101906100d191906108c2565b61037f565b6040516100e3919061090b565b60405180910390f35b600181815481106100fc57600080fd5b906000526020600020906002020160009150905080600001805461011f90610955565b80601f016020809104026020016040519081016040528092919081815260200182805461014b90610955565b80156101985780601f1061016d57610100808354040283529160200191610198565b820191906000526020600020905b81548152906001019060200180831161017b57829003601f168201915b5050505050908060010154905082565b6001604051806040016040528083815260200184815250908060018154018082558091505060019003906000526020600020906002020160009091909190915060008201518160000190816101fd9190610b32565b506020820151816001015550505050565b6060600060018054905067ffffffffffffffff811115610231576102306105c1565b5b60405190808252806020026020018201604052801561026a57816020015b610257610457565b81526020019060019003908161024f5790505b50905060005b600180549050811015610377576001818154811061029157610290610c04565b5b90600052602060002090600202016040518060400160405290816000820180546102ba90610955565b80601f01602080910402602001604051908101604052809291908181526020018280546102e690610955565b80156103335780601f1061030857610100808354040283529160200191610333565b820191906000526020600020905b81548152906001019060200180831161031657829003601f168201915b5050505050815260200160018201548152505082828151811061035957610358610c04565b5b6020026020010181905250808061036f90610c62565b915050610270565b508091505090565b600080600090505b60018054905081101561044c57826040516020016103a59190610ce6565b60405160208183030381529060405280519060200120600182815481106103cf576103ce610c04565b5b90600052602060002090600202016000016040516020016103f09190610d80565b6040516020818303038152906040528051906020012003610439576001818154811061041f5761041e610c04565b5b906000526020600020906002020160010154915050610452565b808061044490610c62565b915050610387565b50600090505b919050565b604051806040016040528060608152602001600081525090565b6000604051905090565b600080fd5b600080fd5b6000819050919050565b61049881610485565b81146104a357600080fd5b50565b6000813590506104b58161048f565b92915050565b6000602082840312156104d1576104d061047b565b5b60006104df848285016104a6565b91505092915050565b600081519050919050565b600082825260208201905092915050565b60005b83811015610522578082015181840152602081019050610507565b60008484015250505050565b6000601f19601f8301169050919050565b600061054a826104e8565b61055481856104f3565b9350610564818560208601610504565b61056d8161052e565b840191505092915050565b61058181610485565b82525050565b600060408201905081810360008301526105a1818561053f565b90506105b06020830184610578565b9392505050565b600080fd5b600080fd5b7f4e487b7100000000000000000000000000000000000000000000000000000000600052604160045260246000fd5b6105f98261052e565b810181811067ffffffffffffffff82111715610618576106176105c1565b5b80604052505050565b600061062b610471565b905061063782826105f0565b919050565b600067ffffffffffffffff821115610657576106566105c1565b5b6106608261052e565b9050602081019050919050565b82818337600083830152505050565b600061068f61068a8461063c565b610621565b9050828152602081018484840111156106ab576106aa6105bc565b5b6106b684828561066d565b509392505050565b600082601f8301126106d3576106d26105b7565b5b81356106e384826020860161067c565b91505092915050565b600080604083850312156107035761070261047b565b5b6000610711858286016104a6565b925050602083013567ffffffffffffffff81111561073257610731610480565b5b61073e858286016106be565b9150509250929050565b600081519050919050565b600082825260208201905092915050565b6000819050602082019050919050565b600082825260208201905092915050565b6000610790826104e8565b61079a8185610774565b93506107aa818560208601610504565b6107b38161052e565b840191505092915050565b6107c781610485565b82525050565b600060408301600083015184820360008601526107ea8282610785565b91505060208301516107ff60208601826107be565b508091505092915050565b600061081683836107cd565b905092915050565b6000602082019050919050565b600061083682610748565b6108408185610753565b93508360208202850161085285610764565b8060005b8581101561088e578484038952815161086f858261080a565b945061087a8361081e565b925060208a01995050600181019050610856565b50829750879550505050505092915050565b600060208201905081810360008301526108ba818461082b565b905092915050565b6000602082840312156108d8576108d761047b565b5b600082013567ffffffffffffffff8111156108f6576108f5610480565b5b610902848285016106be565b91505092915050565b60006020820190506109206000830184610578565b92915050565b7f4e487b7100000000000000000000000000000000000000000000000000000000600052602260045260246000fd5b6000600282049050600182168061096d57607f821691505b6020821081036109805761097f610926565b5b50919050565b60008190508160005260206000209050919050565b60006020601f8301049050919050565b600082821b905092915050565b6000600883026109e87fffffffffffffffffffffffffffffffffffffffffffffffffffffffffffffffff826109ab565b6109f286836109ab565b95508019841693508086168417925050509392505050565b6000819050919050565b6000610a2f610a2a610a2584610485565b610a0a565b610485565b9050919050565b6000819050919050565b610a4983610a14565b610a5d610a5582610a36565b8484546109b8565b825550505050565b600090565b610a72610a65565b610a7d818484610a40565b505050565b5b81811015610aa157610a96600082610a6a565b600181019050610a83565b5050565b601f821115610ae657610ab781610986565b610ac08461099b565b81016020851015610acf578190505b610ae3610adb8561099b565b830182610a82565b50505b505050565b600082821c905092915050565b6000610b0960001984600802610aeb565b1980831691505092915050565b6000610b228383610af8565b9150826002028217905092915050565b610b3b826104e8565b67ffffffffffffffff811115610b5457610b536105c1565b5b610b5e8254610955565b610b69828285610aa5565b600060209050601f831160018114610b9c5760008415610b8a578287015190505b610b948582610b16565b865550610bfc565b601f198416610baa86610986565b60005b82811015610bd257848901518255600182019150602085019450602081019050610bad565b86831015610bef5784890151610beb601f891682610af8565b8355505b6001600288020188555050505b505050505050565b7f4e487b7100000000000000000000000000000000000000000000000000000000600052603260045260246000fd5b7f4e487b7100000000000000000000000000000000000000000000000000000000600052601160045260246000fd5b6000610c6d82610485565b91507fffffffffffffffffffffffffffffffffffffffffffffffffffffffffffffffff8203610c9f57610c9e610c33565b5b600182019050919050565b600081905092915050565b6000610cc0826104e8565b610cca8185610caa565b9350610cda818560208601610504565b80840191505092915050565b6000610cf28284610cb5565b915081905092915050565b60008154610d0a81610955565b610d148186610caa565b94506001821660008114610d2f5760018114610d4457610d77565b60ff1983168652811515820286019350610d77565b610d4d85610986565b60005b83811015610d6f57815481890152600182019150602081019050610d50565b838801955050505b50505092915050565b6000610d8c8284610cfd565b91508190509291505056fea264697066735822122094dcdd53ecfc86f546b8b29af58931bd0a19865cd9d12c8928d3c0f182e76f7f64736f6c63430008110033",
  "immutableReferences": {},
  "source": "// SPDX-License-Identifier: GPL-3.0\npragma solidity >=0.4.16 <0.9.0;\n\ncontract SimpleStorage {\n    uint storedData;\n\n    struct User {\n        string name;\n        uint age;\n    }\n\n    User[] public users;\n\n    function set(uint x, string memory y) public {\n        users.push(User(y, x));\n    }\n\n    function get() public view returns (User[] memory) {\n        User[] memory result = new User[](users.length);\n        for(uint i=0;i<users.length;i++){\n            result[i] = users[i];\n        }\n        return result;\n    }\n\n    function getAge(string memory name) public view returns (uint) {\n        for(uint i=0;i<users.length;i++){\n            if(keccak256(abi.encodePacked(users[i].name)) == keccak256(abi.encodePacked(name))){\n                return users[i].age;\n            }\n        }\n        return 0;\n    }\n\n}",
  "sourcePath": "/home/ardias/Desktop/Development/Blockchain/TA/zakat/contracts/SimpleStorage.sol",
  "compiler": {
    "name": "solc",
    "version": "0.8.17+commit.8df45f5f.Emscripten.clang"
  },
  "schemaVersion": "3.4.10",
  "updatedAt": "2022-12-29T12:21:45.649Z",
  "devdoc": {
    "kind": "dev",
    "methods": {},
    "version": 1
  },
  "userdoc": {
    "kind": "user",
    "methods": {},
    "version": 1
  }
}