{
  "contractName": "TransactionRecord",
  "abi": [
    {
      "inputs": [],
      "stateMutability": "nonpayable",
      "type": "constructor"
    },
    {
      "inputs": [
        {
          "internalType": "uint256",
          "name": "",
          "type": "uint256"
        }
      ],
      "name": "pg",
      "outputs": [
        {
          "internalType": "string",
          "name": "id",
          "type": "string"
        },
        {
          "internalType": "string",
          "name": "extID",
          "type": "string"
        },
        {
          "internalType": "string",
          "name": "paymentMethod",
          "type": "string"
        },
        {
          "internalType": "bool",
          "name": "status",
          "type": "bool"
        },
        {
          "internalType": "uint256",
          "name": "amount",
          "type": "uint256"
        },
        {
          "internalType": "string",
          "name": "bankCode",
          "type": "string"
        },
        {
          "internalType": "string",
          "name": "paidAt",
          "type": "string"
        },
        {
          "internalType": "string",
          "name": "payerEmail",
          "type": "string"
        },
        {
          "internalType": "string",
          "name": "description",
          "type": "string"
        },
        {
          "internalType": "string",
          "name": "currency",
          "type": "string"
        },
        {
          "internalType": "string",
          "name": "paymentChannel",
          "type": "string"
        }
      ],
      "stateMutability": "view",
      "type": "function",
      "constant": true
    },
    {
      "inputs": [
        {
          "internalType": "uint256",
          "name": "",
          "type": "uint256"
        }
      ],
      "name": "transaction",
      "outputs": [
        {
          "internalType": "string",
          "name": "transactionId",
          "type": "string"
        },
        {
          "internalType": "string",
          "name": "recordID",
          "type": "string"
        },
        {
          "internalType": "string",
          "name": "name",
          "type": "string"
        },
        {
          "internalType": "string",
          "name": "email",
          "type": "string"
        },
        {
          "internalType": "string",
          "name": "phone",
          "type": "string"
        },
        {
          "internalType": "uint256",
          "name": "amount",
          "type": "uint256"
        },
        {
          "internalType": "uint256",
          "name": "date",
          "type": "uint256"
        },
        {
          "internalType": "bool",
          "name": "statusPayment",
          "type": "bool"
        },
        {
          "internalType": "string",
          "name": "ipfsHash",
          "type": "string"
        }
      ],
      "stateMutability": "view",
      "type": "function",
      "constant": true
    },
    {
      "inputs": [
        {
          "internalType": "string",
          "name": "_txId",
          "type": "string"
        },
        {
          "internalType": "string",
          "name": "_name",
          "type": "string"
        },
        {
          "internalType": "string",
          "name": "_email",
          "type": "string"
        },
        {
          "internalType": "string",
          "name": "_phone",
          "type": "string"
        },
        {
          "internalType": "uint256",
          "name": "_amount",
          "type": "uint256"
        }
      ],
      "name": "storeTransaction",
      "outputs": [],
      "stateMutability": "nonpayable",
      "type": "function"
    },
    {
      "inputs": [
        {
          "internalType": "string",
          "name": "_id",
          "type": "string"
        },
        {
          "internalType": "string",
          "name": "_extID",
          "type": "string"
        },
        {
          "internalType": "string",
          "name": "_paymentMethod",
          "type": "string"
        },
        {
          "internalType": "bool",
          "name": "_status",
          "type": "bool"
        },
        {
          "internalType": "uint256",
          "name": "_amount",
          "type": "uint256"
        },
        {
          "internalType": "string",
          "name": "_bankCode",
          "type": "string"
        },
        {
          "internalType": "string",
          "name": "_paidAt",
          "type": "string"
        },
        {
          "internalType": "string",
          "name": "_payerEmail",
          "type": "string"
        },
        {
          "internalType": "string",
          "name": "_description",
          "type": "string"
        },
        {
          "internalType": "string",
          "name": "_currency",
          "type": "string"
        },
        {
          "internalType": "string",
          "name": "_paymentChannel",
          "type": "string"
        }
      ],
      "name": "storePaymentGatewayRecord",
      "outputs": [],
      "stateMutability": "nonpayable",
      "type": "function"
    },
    {
      "inputs": [],
      "name": "getTransaction",
      "outputs": [
        {
          "components": [
            {
              "internalType": "string",
              "name": "transactionId",
              "type": "string"
            },
            {
              "internalType": "string",
              "name": "recordID",
              "type": "string"
            },
            {
              "internalType": "string",
              "name": "name",
              "type": "string"
            },
            {
              "internalType": "string",
              "name": "email",
              "type": "string"
            },
            {
              "internalType": "string",
              "name": "phone",
              "type": "string"
            },
            {
              "internalType": "uint256",
              "name": "amount",
              "type": "uint256"
            },
            {
              "internalType": "uint256",
              "name": "date",
              "type": "uint256"
            },
            {
              "internalType": "bool",
              "name": "statusPayment",
              "type": "bool"
            },
            {
              "internalType": "string",
              "name": "ipfsHash",
              "type": "string"
            }
          ],
          "internalType": "struct TransactionRecord.Transaction[]",
          "name": "",
          "type": "tuple[]"
        }
      ],
      "stateMutability": "view",
      "type": "function",
      "constant": true
    },
    {
      "inputs": [],
      "name": "getPaymentGatewayRecord",
      "outputs": [
        {
          "components": [
            {
              "internalType": "string",
              "name": "id",
              "type": "string"
            },
            {
              "internalType": "string",
              "name": "extID",
              "type": "string"
            },
            {
              "internalType": "string",
              "name": "paymentMethod",
              "type": "string"
            },
            {
              "internalType": "bool",
              "name": "status",
              "type": "bool"
            },
            {
              "internalType": "uint256",
              "name": "amount",
              "type": "uint256"
            },
            {
              "internalType": "string",
              "name": "bankCode",
              "type": "string"
            },
            {
              "internalType": "string",
              "name": "paidAt",
              "type": "string"
            },
            {
              "internalType": "string",
              "name": "payerEmail",
              "type": "string"
            },
            {
              "internalType": "string",
              "name": "description",
              "type": "string"
            },
            {
              "internalType": "string",
              "name": "currency",
              "type": "string"
            },
            {
              "internalType": "string",
              "name": "paymentChannel",
              "type": "string"
            }
          ],
          "internalType": "struct TransactionRecord.PaymentGateway[]",
          "name": "",
          "type": "tuple[]"
        }
      ],
      "stateMutability": "view",
      "type": "function",
      "constant": true
    },
    {
      "inputs": [
        {
          "internalType": "string",
          "name": "_txID",
          "type": "string"
        },
        {
          "internalType": "string",
          "name": "_ipfsHash",
          "type": "string"
        },
        {
          "internalType": "string",
          "name": "_recordID",
          "type": "string"
        }
      ],
      "name": "updateIPFS",
      "outputs": [],
      "stateMutability": "nonpayable",
      "type": "function"
    },
    {
      "inputs": [
        {
          "internalType": "string",
          "name": "_ipfsHash",
          "type": "string"
        }
      ],
      "name": "verifyFile",
      "outputs": [
        {
          "internalType": "bool",
          "name": "",
          "type": "bool"
        }
      ],
      "stateMutability": "view",
      "type": "function",
      "constant": true
    },
    {
      "inputs": [
        {
          "internalType": "string",
          "name": "_id",
          "type": "string"
        }
      ],
      "name": "verifyID",
      "outputs": [
        {
          "internalType": "bool",
          "name": "",
          "type": "bool"
        }
      ],
      "stateMutability": "view",
      "type": "function",
      "constant": true
    }
  ],
  "bytecode": "0x608060405234801561001057600080fd5b50336000806101000a81548173ffffffffffffffffffffffffffffffffffffffff021916908373ffffffffffffffffffffffffffffffffffffffff160217905550612e9a806100606000396000f3fe608060405234801561001057600080fd5b50600436106100935760003560e01c806365ebe9d71161006657806365ebe9d7146101285780638d0010871461015857806392d5f34e14610192578063b0271023146101ae578063c75449e7146101de57610093565b806346bd08411461009857806357d256ee146100d057806359705f81146100ee5780635b02b84e1461010c575b600080fd5b6100b260048036038101906100ad9190611d79565b6101fa565b6040516100c799989796959493929190611e60565b60405180910390f35b6100d8610595565b6040516100e59190612168565b60405180910390f35b6100f6610bb2565b6040516101039190612334565b60405180910390f35b6101266004803603810190610121919061248b565b611023565b005b610142600480360381019061013d9190612532565b6111f9565b60405161014f919061257b565b60405180910390f35b610172600480360381019061016d9190611d79565b6112ad565b6040516101899b9a99989796959493929190612596565b60405180910390f35b6101ac60048036038101906101a791906126ac565b6117ec565b005b6101c860048036038101906101c39190612532565b6119f5565b6040516101d5919061257b565b60405180910390f35b6101f860048036038101906101f3919061289c565b611aa9565b005b6001818154811061020a57600080fd5b906000526020600020906009020160009150905080600001805461022d906129b6565b80601f0160208091040260200160405190810160405280929190818152602001828054610259906129b6565b80156102a65780601f1061027b576101008083540402835291602001916102a6565b820191906000526020600020905b81548152906001019060200180831161028957829003601f168201915b5050505050908060010180546102bb906129b6565b80601f01602080910402602001604051908101604052809291908181526020018280546102e7906129b6565b80156103345780601f1061030957610100808354040283529160200191610334565b820191906000526020600020905b81548152906001019060200180831161031757829003601f168201915b505050505090806002018054610349906129b6565b80601f0160208091040260200160405190810160405280929190818152602001828054610375906129b6565b80156103c25780601f10610397576101008083540402835291602001916103c2565b820191906000526020600020905b8154815290600101906020018083116103a557829003601f168201915b5050505050908060030180546103d7906129b6565b80601f0160208091040260200160405190810160405280929190818152602001828054610403906129b6565b80156104505780601f1061042557610100808354040283529160200191610450565b820191906000526020600020905b81548152906001019060200180831161043357829003601f168201915b505050505090806004018054610465906129b6565b80601f0160208091040260200160405190810160405280929190818152602001828054610491906129b6565b80156104de5780601f106104b3576101008083540402835291602001916104de565b820191906000526020600020905b8154815290600101906020018083116104c157829003601f168201915b5050505050908060050154908060060154908060070160009054906101000a900460ff1690806008018054610512906129b6565b80601f016020809104026020016040519081016040528092919081815260200182805461053e906129b6565b801561058b5780601f106105605761010080835404028352916020019161058b565b820191906000526020600020905b81548152906001019060200180831161056e57829003601f168201915b5050505050905089565b6060600060028054905067ffffffffffffffff8111156105b8576105b7612360565b5b6040519080825280602002602001820160405280156105f157816020015b6105de611c85565b8152602001906001900390816105d65790505b50905060005b600280549050811015610baa5760028181548110610618576106176129e7565b5b90600052602060002090600b020160405180610160016040529081600082018054610642906129b6565b80601f016020809104026020016040519081016040528092919081815260200182805461066e906129b6565b80156106bb5780601f10610690576101008083540402835291602001916106bb565b820191906000526020600020905b81548152906001019060200180831161069e57829003601f168201915b505050505081526020016001820180546106d4906129b6565b80601f0160208091040260200160405190810160405280929190818152602001828054610700906129b6565b801561074d5780601f106107225761010080835404028352916020019161074d565b820191906000526020600020905b81548152906001019060200180831161073057829003601f168201915b50505050508152602001600282018054610766906129b6565b80601f0160208091040260200160405190810160405280929190818152602001828054610792906129b6565b80156107df5780601f106107b4576101008083540402835291602001916107df565b820191906000526020600020905b8154815290600101906020018083116107c257829003601f168201915b505050505081526020016003820160009054906101000a900460ff161515151581526020016004820154815260200160058201805461081d906129b6565b80601f0160208091040260200160405190810160405280929190818152602001828054610849906129b6565b80156108965780601f1061086b57610100808354040283529160200191610896565b820191906000526020600020905b81548152906001019060200180831161087957829003601f168201915b505050505081526020016006820180546108af906129b6565b80601f01602080910402602001604051908101604052809291908181526020018280546108db906129b6565b80156109285780601f106108fd57610100808354040283529160200191610928565b820191906000526020600020905b81548152906001019060200180831161090b57829003601f168201915b50505050508152602001600782018054610941906129b6565b80601f016020809104026020016040519081016040528092919081815260200182805461096d906129b6565b80156109ba5780601f1061098f576101008083540402835291602001916109ba565b820191906000526020600020905b81548152906001019060200180831161099d57829003601f168201915b505050505081526020016008820180546109d3906129b6565b80601f01602080910402602001604051908101604052809291908181526020018280546109ff906129b6565b8015610a4c5780601f10610a2157610100808354040283529160200191610a4c565b820191906000526020600020905b815481529060010190602001808311610a2f57829003601f168201915b50505050508152602001600982018054610a65906129b6565b80601f0160208091040260200160405190810160405280929190818152602001828054610a91906129b6565b8015610ade5780601f10610ab357610100808354040283529160200191610ade565b820191906000526020600020905b815481529060010190602001808311610ac157829003601f168201915b50505050508152602001600a82018054610af7906129b6565b80601f0160208091040260200160405190810160405280929190818152602001828054610b23906129b6565b8015610b705780601f10610b4557610100808354040283529160200191610b70565b820191906000526020600020905b815481529060010190602001808311610b5357829003601f168201915b505050505081525050828281518110610b8c57610b8b6129e7565b5b60200260200101819052508080610ba290612a45565b9150506105f7565b508091505090565b6060600060018054905067ffffffffffffffff811115610bd557610bd4612360565b5b604051908082528060200260200182016040528015610c0e57816020015b610bfb611ce1565b815260200190600190039081610bf35790505b50905060005b60018054905081101561101b5760018181548110610c3557610c346129e7565b5b906000526020600020906009020160405180610120016040529081600082018054610c5f906129b6565b80601f0160208091040260200160405190810160405280929190818152602001828054610c8b906129b6565b8015610cd85780601f10610cad57610100808354040283529160200191610cd8565b820191906000526020600020905b815481529060010190602001808311610cbb57829003601f168201915b50505050508152602001600182018054610cf1906129b6565b80601f0160208091040260200160405190810160405280929190818152602001828054610d1d906129b6565b8015610d6a5780601f10610d3f57610100808354040283529160200191610d6a565b820191906000526020600020905b815481529060010190602001808311610d4d57829003601f168201915b50505050508152602001600282018054610d83906129b6565b80601f0160208091040260200160405190810160405280929190818152602001828054610daf906129b6565b8015610dfc5780601f10610dd157610100808354040283529160200191610dfc565b820191906000526020600020905b815481529060010190602001808311610ddf57829003601f168201915b50505050508152602001600382018054610e15906129b6565b80601f0160208091040260200160405190810160405280929190818152602001828054610e41906129b6565b8015610e8e5780601f10610e6357610100808354040283529160200191610e8e565b820191906000526020600020905b815481529060010190602001808311610e7157829003601f168201915b50505050508152602001600482018054610ea7906129b6565b80601f0160208091040260200160405190810160405280929190818152602001828054610ed3906129b6565b8015610f205780601f10610ef557610100808354040283529160200191610f20565b820191906000526020600020905b815481529060010190602001808311610f0357829003601f168201915b5050505050815260200160058201548152602001600682015481526020016007820160009054906101000a900460ff16151515158152602001600882018054610f68906129b6565b80601f0160208091040260200160405190810160405280929190818152602001828054610f94906129b6565b8015610fe15780601f10610fb657610100808354040283529160200191610fe1565b820191906000526020600020905b815481529060010190602001808311610fc457829003601f168201915b505050505081525050828281518110610ffd57610ffc6129e7565b5b6020026020010181905250808061101390612a45565b915050610c14565b508091505090565b60008054906101000a900473ffffffffffffffffffffffffffffffffffffffff1673ffffffffffffffffffffffffffffffffffffffff163373ffffffffffffffffffffffffffffffffffffffff16146110b1576040517f08c379a00000000000000000000000000000000000000000000000000000000081526004016110a890612ad9565b60405180910390fd5b60005b6001805490508110156111f357836040516020016110d29190612b35565b60405160208183030381529060405280519060200120600182815481106110fc576110fb6129e7565b5b906000526020600020906009020160000160405160200161111d9190612be4565b60405160208183030381529060405280519060200120036111e057600180828154811061114d5761114c6129e7565b5b906000526020600020906009020160070160006101000a81548160ff021916908315150217905550826001828154811061118a576111896129e7565b5b906000526020600020906009020160080190816111a79190612d92565b5081600182815481106111bd576111bc6129e7565b5b906000526020600020906009020160010190816111da9190612d92565b506111f3565b80806111eb90612a45565b9150506110b4565b50505050565b6000806000905060005b6001805490508110156112a357836040516020016112219190612b35565b604051602081830303815290604052805190602001206001828154811061124b5761124a6129e7565b5b906000526020600020906009020160010160405160200161126c9190612be4565b604051602081830303815290604052805190602001200361129057600191506112a3565b808061129b90612a45565b915050611203565b5080915050919050565b600281815481106112bd57600080fd5b90600052602060002090600b02016000915090508060000180546112e0906129b6565b80601f016020809104026020016040519081016040528092919081815260200182805461130c906129b6565b80156113595780601f1061132e57610100808354040283529160200191611359565b820191906000526020600020905b81548152906001019060200180831161133c57829003601f168201915b50505050509080600101805461136e906129b6565b80601f016020809104026020016040519081016040528092919081815260200182805461139a906129b6565b80156113e75780601f106113bc576101008083540402835291602001916113e7565b820191906000526020600020905b8154815290600101906020018083116113ca57829003601f168201915b5050505050908060020180546113fc906129b6565b80601f0160208091040260200160405190810160405280929190818152602001828054611428906129b6565b80156114755780601f1061144a57610100808354040283529160200191611475565b820191906000526020600020905b81548152906001019060200180831161145857829003601f168201915b5050505050908060030160009054906101000a900460ff16908060040154908060050180546114a3906129b6565b80601f01602080910402602001604051908101604052809291908181526020018280546114cf906129b6565b801561151c5780601f106114f15761010080835404028352916020019161151c565b820191906000526020600020905b8154815290600101906020018083116114ff57829003601f168201915b505050505090806006018054611531906129b6565b80601f016020809104026020016040519081016040528092919081815260200182805461155d906129b6565b80156115aa5780601f1061157f576101008083540402835291602001916115aa565b820191906000526020600020905b81548152906001019060200180831161158d57829003601f168201915b5050505050908060070180546115bf906129b6565b80601f01602080910402602001604051908101604052809291908181526020018280546115eb906129b6565b80156116385780601f1061160d57610100808354040283529160200191611638565b820191906000526020600020905b81548152906001019060200180831161161b57829003601f168201915b50505050509080600801805461164d906129b6565b80601f0160208091040260200160405190810160405280929190818152602001828054611679906129b6565b80156116c65780601f1061169b576101008083540402835291602001916116c6565b820191906000526020600020905b8154815290600101906020018083116116a957829003601f168201915b5050505050908060090180546116db906129b6565b80601f0160208091040260200160405190810160405280929190818152602001828054611707906129b6565b80156117545780601f1061172957610100808354040283529160200191611754565b820191906000526020600020905b81548152906001019060200180831161173757829003601f168201915b50505050509080600a018054611769906129b6565b80601f0160208091040260200160405190810160405280929190818152602001828054611795906129b6565b80156117e25780601f106117b7576101008083540402835291602001916117e2565b820191906000526020600020905b8154815290600101906020018083116117c557829003601f168201915b505050505090508b565b60008054906101000a900473ffffffffffffffffffffffffffffffffffffffff1673ffffffffffffffffffffffffffffffffffffffff163373ffffffffffffffffffffffffffffffffffffffff161461187a576040517f08c379a000000000000000000000000000000000000000000000000000000000815260040161187190612ad9565b60405180910390fd5b60026040518061016001604052808d81526020018c81526020018b81526020018a151581526020018981526020018881526020018781526020018681526020018581526020018481526020018381525090806001815401808255809150506001900390600052602060002090600b020160009091909190915060008201518160000190816119089190612d92565b50602082015181600101908161191e9190612d92565b5060408201518160020190816119349190612d92565b5060608201518160030160006101000a81548160ff0219169083151502179055506080820151816004015560a08201518160050190816119749190612d92565b5060c082015181600601908161198a9190612d92565b5060e08201518160070190816119a09190612d92565b506101008201518160080190816119b79190612d92565b506101208201518160090190816119ce9190612d92565b5061014082015181600a0190816119e59190612d92565b5050505050505050505050505050565b6000806000905060005b600180549050811015611a9f5783604051602001611a1d9190612b35565b6040516020818303038152906040528051906020012060018281548110611a4757611a466129e7565b5b9060005260206000209060090201600801604051602001611a689190612be4565b6040516020818303038152906040528051906020012003611a8c5760019150611a9f565b8080611a9790612a45565b9150506119ff565b5080915050919050565b60008054906101000a900473ffffffffffffffffffffffffffffffffffffffff1673ffffffffffffffffffffffffffffffffffffffff163373ffffffffffffffffffffffffffffffffffffffff1614611b37576040517f08c379a0000000000000000000000000000000000000000000000000000000008152600401611b2e90612ad9565b60405180910390fd5b60016040518061012001604052808781526020016040518060200160405280600081525081526020018681526020018581526020018481526020018381526020014281526020016000151581526020016040518060200160405280600081525081525090806001815401808255809150506001900390600052602060002090600902016000909190919091506000820151816000019081611bd89190612d92565b506020820151816001019081611bee9190612d92565b506040820151816002019081611c049190612d92565b506060820151816003019081611c1a9190612d92565b506080820151816004019081611c309190612d92565b5060a0820151816005015560c0820151816006015560e08201518160070160006101000a81548160ff021916908315150217905550610100820151816008019081611c7b9190612d92565b5050505050505050565b604051806101600160405280606081526020016060815260200160608152602001600015158152602001600081526020016060815260200160608152602001606081526020016060815260200160608152602001606081525090565b60405180610120016040528060608152602001606081526020016060815260200160608152602001606081526020016000815260200160008152602001600015158152602001606081525090565b6000604051905090565b600080fd5b600080fd5b6000819050919050565b611d5681611d43565b8114611d6157600080fd5b50565b600081359050611d7381611d4d565b92915050565b600060208284031215611d8f57611d8e611d39565b5b6000611d9d84828501611d64565b91505092915050565b600081519050919050565b600082825260208201905092915050565b60005b83811015611de0578082015181840152602081019050611dc5565b60008484015250505050565b6000601f19601f8301169050919050565b6000611e0882611da6565b611e128185611db1565b9350611e22818560208601611dc2565b611e2b81611dec565b840191505092915050565b611e3f81611d43565b82525050565b60008115159050919050565b611e5a81611e45565b82525050565b6000610120820190508181036000830152611e7b818c611dfd565b90508181036020830152611e8f818b611dfd565b90508181036040830152611ea3818a611dfd565b90508181036060830152611eb78189611dfd565b90508181036080830152611ecb8188611dfd565b9050611eda60a0830187611e36565b611ee760c0830186611e36565b611ef460e0830185611e51565b818103610100830152611f078184611dfd565b90509a9950505050505050505050565b600081519050919050565b600082825260208201905092915050565b6000819050602082019050919050565b600082825260208201905092915050565b6000611f5f82611da6565b611f698185611f43565b9350611f79818560208601611dc2565b611f8281611dec565b840191505092915050565b611f9681611e45565b82525050565b611fa581611d43565b82525050565b6000610160830160008301518482036000860152611fc98282611f54565b91505060208301518482036020860152611fe38282611f54565b91505060408301518482036040860152611ffd8282611f54565b91505060608301516120126060860182611f8d565b5060808301516120256080860182611f9c565b5060a083015184820360a086015261203d8282611f54565b91505060c083015184820360c08601526120578282611f54565b91505060e083015184820360e08601526120718282611f54565b91505061010083015184820361010086015261208d8282611f54565b9150506101208301518482036101208601526120a98282611f54565b9150506101408301518482036101408601526120c58282611f54565b9150508091505092915050565b60006120de8383611fab565b905092915050565b6000602082019050919050565b60006120fe82611f17565b6121088185611f22565b93508360208202850161211a85611f33565b8060005b85811015612156578484038952815161213785826120d2565b9450612142836120e6565b925060208a0199505060018101905061211e565b50829750879550505050505092915050565b6000602082019050818103600083015261218281846120f3565b905092915050565b600081519050919050565b600082825260208201905092915050565b6000819050602082019050919050565b60006101208301600083015184820360008601526121d48282611f54565b915050602083015184820360208601526121ee8282611f54565b915050604083015184820360408601526122088282611f54565b915050606083015184820360608601526122228282611f54565b9150506080830151848203608086015261223c8282611f54565b91505060a083015161225160a0860182611f9c565b5060c083015161226460c0860182611f9c565b5060e083015161227760e0860182611f8d565b506101008301518482036101008601526122918282611f54565b9150508091505092915050565b60006122aa83836121b6565b905092915050565b6000602082019050919050565b60006122ca8261218a565b6122d48185612195565b9350836020820285016122e6856121a6565b8060005b858110156123225784840389528151612303858261229e565b945061230e836122b2565b925060208a019950506001810190506122ea565b50829750879550505050505092915050565b6000602082019050818103600083015261234e81846122bf565b905092915050565b600080fd5b600080fd5b7f4e487b7100000000000000000000000000000000000000000000000000000000600052604160045260246000fd5b61239882611dec565b810181811067ffffffffffffffff821117156123b7576123b6612360565b5b80604052505050565b60006123ca611d2f565b90506123d6828261238f565b919050565b600067ffffffffffffffff8211156123f6576123f5612360565b5b6123ff82611dec565b9050602081019050919050565b82818337600083830152505050565b600061242e612429846123db565b6123c0565b90508281526020810184848401111561244a5761244961235b565b5b61245584828561240c565b509392505050565b600082601f83011261247257612471612356565b5b813561248284826020860161241b565b91505092915050565b6000806000606084860312156124a4576124a3611d39565b5b600084013567ffffffffffffffff8111156124c2576124c1611d3e565b5b6124ce8682870161245d565b935050602084013567ffffffffffffffff8111156124ef576124ee611d3e565b5b6124fb8682870161245d565b925050604084013567ffffffffffffffff81111561251c5761251b611d3e565b5b6125288682870161245d565b9150509250925092565b60006020828403121561254857612547611d39565b5b600082013567ffffffffffffffff81111561256657612565611d3e565b5b6125728482850161245d565b91505092915050565b60006020820190506125906000830184611e51565b92915050565b60006101608201905081810360008301526125b1818e611dfd565b905081810360208301526125c5818d611dfd565b905081810360408301526125d9818c611dfd565b90506125e8606083018b611e51565b6125f5608083018a611e36565b81810360a08301526126078189611dfd565b905081810360c083015261261b8188611dfd565b905081810360e083015261262f8187611dfd565b90508181036101008301526126448186611dfd565b90508181036101208301526126598185611dfd565b905081810361014083015261266e8184611dfd565b90509c9b505050505050505050505050565b61268981611e45565b811461269457600080fd5b50565b6000813590506126a681612680565b92915050565b60008060008060008060008060008060006101608c8e0312156126d2576126d1611d39565b5b60008c013567ffffffffffffffff8111156126f0576126ef611d3e565b5b6126fc8e828f0161245d565b9b505060208c013567ffffffffffffffff81111561271d5761271c611d3e565b5b6127298e828f0161245d565b9a505060408c013567ffffffffffffffff81111561274a57612749611d3e565b5b6127568e828f0161245d565b99505060606127678e828f01612697565b98505060806127788e828f01611d64565b97505060a08c013567ffffffffffffffff81111561279957612798611d3e565b5b6127a58e828f0161245d565b96505060c08c013567ffffffffffffffff8111156127c6576127c5611d3e565b5b6127d28e828f0161245d565b95505060e08c013567ffffffffffffffff8111156127f3576127f2611d3e565b5b6127ff8e828f0161245d565b9450506101008c013567ffffffffffffffff81111561282157612820611d3e565b5b61282d8e828f0161245d565b9350506101208c013567ffffffffffffffff81111561284f5761284e611d3e565b5b61285b8e828f0161245d565b9250506101408c013567ffffffffffffffff81111561287d5761287c611d3e565b5b6128898e828f0161245d565b9150509295989b509295989b9093969950565b600080600080600060a086880312156128b8576128b7611d39565b5b600086013567ffffffffffffffff8111156128d6576128d5611d3e565b5b6128e28882890161245d565b955050602086013567ffffffffffffffff81111561290357612902611d3e565b5b61290f8882890161245d565b945050604086013567ffffffffffffffff8111156129305761292f611d3e565b5b61293c8882890161245d565b935050606086013567ffffffffffffffff81111561295d5761295c611d3e565b5b6129698882890161245d565b925050608061297a88828901611d64565b9150509295509295909350565b7f4e487b7100000000000000000000000000000000000000000000000000000000600052602260045260246000fd5b600060028204905060018216806129ce57607f821691505b6020821081036129e1576129e0612987565b5b50919050565b7f4e487b7100000000000000000000000000000000000000000000000000000000600052603260045260246000fd5b7f4e487b7100000000000000000000000000000000000000000000000000000000600052601160045260246000fd5b6000612a5082611d43565b91507fffffffffffffffffffffffffffffffffffffffffffffffffffffffffffffffff8203612a8257612a81612a16565b5b600182019050919050565b7f596f7520617265206e6f7420746865206f776e65720000000000000000000000600082015250565b6000612ac3601583611db1565b9150612ace82612a8d565b602082019050919050565b60006020820190508181036000830152612af281612ab6565b9050919050565b600081905092915050565b6000612b0f82611da6565b612b198185612af9565b9350612b29818560208601611dc2565b80840191505092915050565b6000612b418284612b04565b915081905092915050565b60008190508160005260206000209050919050565b60008154612b6e816129b6565b612b788186612af9565b94506001821660008114612b935760018114612ba857612bdb565b60ff1983168652811515820286019350612bdb565b612bb185612b4c565b60005b83811015612bd357815481890152600182019150602081019050612bb4565b838801955050505b50505092915050565b6000612bf08284612b61565b915081905092915050565b60006020601f8301049050919050565b600082821b905092915050565b600060088302612c487fffffffffffffffffffffffffffffffffffffffffffffffffffffffffffffffff82612c0b565b612c528683612c0b565b95508019841693508086168417925050509392505050565b6000819050919050565b6000612c8f612c8a612c8584611d43565b612c6a565b611d43565b9050919050565b6000819050919050565b612ca983612c74565b612cbd612cb582612c96565b848454612c18565b825550505050565b600090565b612cd2612cc5565b612cdd818484612ca0565b505050565b5b81811015612d0157612cf6600082612cca565b600181019050612ce3565b5050565b601f821115612d4657612d1781612b4c565b612d2084612bfb565b81016020851015612d2f578190505b612d43612d3b85612bfb565b830182612ce2565b50505b505050565b600082821c905092915050565b6000612d6960001984600802612d4b565b1980831691505092915050565b6000612d828383612d58565b9150826002028217905092915050565b612d9b82611da6565b67ffffffffffffffff811115612db457612db3612360565b5b612dbe82546129b6565b612dc9828285612d05565b600060209050601f831160018114612dfc5760008415612dea578287015190505b612df48582612d76565b865550612e5c565b601f198416612e0a86612b4c565b60005b82811015612e3257848901518255600182019150602085019450602081019050612e0d565b86831015612e4f5784890151612e4b601f891682612d58565b8355505b6001600288020188555050505b50505050505056fea2646970667358221220d088bf147ddebf70a5a8cacaf81c129a0f73290d317af19cc5fff4674f17bbc164736f6c63430008110033",
  "immutableReferences": {},
  "source": "// SPDX-License-Identifier: MIT\n\npragma solidity ^0.8.7;\n\ncontract TransactionRecord {\n    address owner; \n\n    constructor() {\n        owner = msg.sender;\n    }\n\n    struct Transaction {\n        string transactionId;\n        string recordID;\n        string name;\n        string email;\n        string phone;\n        uint256 amount;\n        uint256 date;\n        bool statusPayment;\n        string ipfsHash;\n    }\n\n    struct PaymentGateway {\n        string id;\n        string extID;\n        string paymentMethod;\n        bool status;\n        uint256 amount;\n        string bankCode;\n        string paidAt;\n        string payerEmail;\n        string description;\n        string currency;\n        string paymentChannel;\n    }\n\n    Transaction[] public transaction;\n    PaymentGateway[] public pg;\n\n    function storeTransaction(\n        string memory _txId,\n        string memory _name,\n        string memory _email,\n        string memory _phone,\n        uint256 _amount\n    ) public {\n        require(msg.sender == owner, \"You are not the owner\");\n        transaction.push(\n            Transaction(_txId, \"\", _name, _email, _phone, _amount, block.timestamp, false, \"\")\n        );\n    }\n\n    function storePaymentGatewayRecord(string memory _id,\n        string memory _extID,\n        string memory _paymentMethod,\n        bool _status,\n        uint256 _amount,\n        string memory _bankCode,\n        string memory _paidAt,\n        string memory _payerEmail,\n        string memory _description,\n        string memory _currency,\n        string memory _paymentChannel\n        ) public {\n        require(msg.sender == owner, \"You are not the owner\");\n        pg.push(\n            PaymentGateway(\n                _id,\n                _extID,\n                _paymentMethod,\n                _status,\n                _amount,\n                _bankCode,\n                _paidAt,\n                _payerEmail,\n                _description,\n                _currency,\n                _paymentChannel\n            )\n        );\n    }\n\n    function getTransaction() public view returns (Transaction[] memory) {\n        Transaction[] memory result = new Transaction[](transaction.length);\n        for (uint256 i = 0; i < transaction.length; i++) {\n            result[i] = transaction[i];\n        }\n        return result;\n    }\n\n    function getPaymentGatewayRecord() public view returns (PaymentGateway[] memory) {\n        PaymentGateway[] memory result = new PaymentGateway[](pg.length);\n        for (uint256 i = 0; i < pg.length; i++) {\n            result[i] = pg[i];\n        }\n        return result;\n    }\n\n    function updateIPFS(string memory _txID, string memory _ipfsHash, string memory _recordID) public {\n        require(msg.sender == owner, \"You are not the owner\");\n        for (uint256 i = 0; i < transaction.length; i++) {\n            if (\n                keccak256(abi.encodePacked(transaction[i].transactionId)) ==\n                keccak256(abi.encodePacked(_txID))\n            ) {\n                transaction[i].statusPayment = true;\n                transaction[i].ipfsHash = _ipfsHash;\n                transaction[i].recordID = _recordID;\n                break;\n            }\n        }\n    }\n\n    function verifyFile(string memory _ipfsHash) public view returns (bool) {\n        bool valid = false;\n        for (uint256 i = 0; i < transaction.length; i++) {\n            if (\n                keccak256(abi.encodePacked(transaction[i].ipfsHash)) ==\n                keccak256(abi.encodePacked(_ipfsHash))\n            ) {\n                valid = true;\n                break;\n            }\n        }\n        return valid;\n    }\n\n    function verifyID(string memory _id) public view returns (bool) {\n        bool valid = false;\n        for (uint256 i = 0; i < transaction.length; i++) {\n            if (\n                keccak256(abi.encodePacked(transaction[i].recordID)) ==\n                keccak256(abi.encodePacked(_id))\n            ) {\n                valid = true;\n                break;\n            }\n        }\n        return valid;\n    }\n\n}",
  "sourcePath": "/home/ardias/Desktop/Development/Blockchain/TA/zakat/contracts/TransactionRecord.sol",
  "compiler": {
    "name": "solc",
    "version": "0.8.17+commit.8df45f5f.Emscripten.clang"
  },
  "schemaVersion": "3.4.11",
  "updatedAt": "2023-03-18T14:01:41.704Z",
  "networkType": "ethereum",
  "devdoc": {
    "kind": "dev",
    "methods": {},
    "version": 1
  },
  "userdoc": {
    "kind": "user",
    "methods": {},
    "version": 1
  }
}