{
  "contractName": "Zakat",
  "abi": [
    {
      "inputs": [],
      "stateMutability": "nonpayable",
      "type": "constructor"
    },
    {
      "inputs": [
        {
          "internalType": "uint256",
          "name": "",
          "type": "uint256"
        }
      ],
      "name": "pg",
      "outputs": [
        {
          "internalType": "string",
          "name": "_id",
          "type": "string"
        },
        {
          "internalType": "string",
          "name": "_extID",
          "type": "string"
        },
        {
          "internalType": "string",
          "name": "_paymentMethod",
          "type": "string"
        },
        {
          "internalType": "bool",
          "name": "_status",
          "type": "bool"
        },
        {
          "internalType": "uint256",
          "name": "_amount",
          "type": "uint256"
        },
        {
          "internalType": "string",
          "name": "_bankCode",
          "type": "string"
        },
        {
          "internalType": "string",
          "name": "_paidAt",
          "type": "string"
        },
        {
          "internalType": "string",
          "name": "_payerEmail",
          "type": "string"
        },
        {
          "internalType": "string",
          "name": "_description",
          "type": "string"
        },
        {
          "internalType": "string",
          "name": "_currency",
          "type": "string"
        },
        {
          "internalType": "string",
          "name": "_paymentChannel",
          "type": "string"
        }
      ],
      "stateMutability": "view",
      "type": "function",
      "constant": true
    },
    {
      "inputs": [
        {
          "internalType": "uint256",
          "name": "",
          "type": "uint256"
        }
      ],
      "name": "zvoice",
      "outputs": [
        {
          "internalType": "address",
          "name": "walletAddress",
          "type": "address"
        },
        {
          "internalType": "string",
          "name": "zakatID",
          "type": "string"
        },
        {
          "internalType": "string",
          "name": "name",
          "type": "string"
        },
        {
          "internalType": "string",
          "name": "email",
          "type": "string"
        },
        {
          "internalType": "string",
          "name": "phoneNum",
          "type": "string"
        },
        {
          "internalType": "uint256",
          "name": "amount",
          "type": "uint256"
        },
        {
          "internalType": "uint256",
          "name": "date",
          "type": "uint256"
        },
        {
          "internalType": "bool",
          "name": "statusPayment",
          "type": "bool"
        },
        {
          "internalType": "string",
          "name": "ipfsHash",
          "type": "string"
        }
      ],
      "stateMutability": "view",
      "type": "function",
      "constant": true
    },
    {
      "inputs": [
        {
          "internalType": "string",
          "name": "_zakatID",
          "type": "string"
        },
        {
          "internalType": "string",
          "name": "_name",
          "type": "string"
        },
        {
          "internalType": "string",
          "name": "_email",
          "type": "string"
        },
        {
          "internalType": "string",
          "name": "_phoneNum",
          "type": "string"
        },
        {
          "internalType": "uint256",
          "name": "_amount",
          "type": "uint256"
        }
      ],
      "name": "store",
      "outputs": [],
      "stateMutability": "nonpayable",
      "type": "function"
    },
    {
      "inputs": [
        {
          "internalType": "string",
          "name": "_zakatID",
          "type": "string"
        },
        {
          "internalType": "string",
          "name": "_ipfsHash",
          "type": "string"
        }
      ],
      "name": "updateIPFS",
      "outputs": [],
      "stateMutability": "nonpayable",
      "type": "function"
    },
    {
      "inputs": [],
      "name": "getZakat",
      "outputs": [
        {
          "components": [
            {
              "internalType": "address",
              "name": "walletAddress",
              "type": "address"
            },
            {
              "internalType": "string",
              "name": "zakatID",
              "type": "string"
            },
            {
              "internalType": "string",
              "name": "name",
              "type": "string"
            },
            {
              "internalType": "string",
              "name": "email",
              "type": "string"
            },
            {
              "internalType": "string",
              "name": "phoneNum",
              "type": "string"
            },
            {
              "internalType": "uint256",
              "name": "amount",
              "type": "uint256"
            },
            {
              "internalType": "uint256",
              "name": "date",
              "type": "uint256"
            },
            {
              "internalType": "bool",
              "name": "statusPayment",
              "type": "bool"
            },
            {
              "internalType": "string",
              "name": "ipfsHash",
              "type": "string"
            }
          ],
          "internalType": "struct Zakat.ZakatIVC[]",
          "name": "",
          "type": "tuple[]"
        }
      ],
      "stateMutability": "view",
      "type": "function",
      "constant": true
    },
    {
      "inputs": [
        {
          "internalType": "address",
          "name": "_walletAddress",
          "type": "address"
        }
      ],
      "name": "getHistory",
      "outputs": [
        {
          "internalType": "string[]",
          "name": "",
          "type": "string[]"
        },
        {
          "internalType": "uint256[]",
          "name": "",
          "type": "uint256[]"
        },
        {
          "internalType": "uint256[]",
          "name": "",
          "type": "uint256[]"
        },
        {
          "internalType": "string[]",
          "name": "",
          "type": "string[]"
        }
      ],
      "stateMutability": "view",
      "type": "function",
      "constant": true
    },
    {
      "inputs": [
        {
          "internalType": "string",
          "name": "_id",
          "type": "string"
        },
        {
          "internalType": "string",
          "name": "_extID",
          "type": "string"
        },
        {
          "internalType": "string",
          "name": "_paymentMethod",
          "type": "string"
        },
        {
          "internalType": "bool",
          "name": "_status",
          "type": "bool"
        },
        {
          "internalType": "uint256",
          "name": "_amount",
          "type": "uint256"
        },
        {
          "internalType": "string",
          "name": "_bankCode",
          "type": "string"
        },
        {
          "internalType": "string",
          "name": "_paidAt",
          "type": "string"
        },
        {
          "internalType": "string",
          "name": "_payerEmail",
          "type": "string"
        },
        {
          "internalType": "string",
          "name": "_description",
          "type": "string"
        },
        {
          "internalType": "string",
          "name": "_currency",
          "type": "string"
        },
        {
          "internalType": "string",
          "name": "_paymentChannel",
          "type": "string"
        }
      ],
      "name": "storePG",
      "outputs": [],
      "stateMutability": "nonpayable",
      "type": "function"
    },
    {
      "inputs": [],
      "name": "getPG",
      "outputs": [
        {
          "components": [
            {
              "internalType": "string",
              "name": "_id",
              "type": "string"
            },
            {
              "internalType": "string",
              "name": "_extID",
              "type": "string"
            },
            {
              "internalType": "string",
              "name": "_paymentMethod",
              "type": "string"
            },
            {
              "internalType": "bool",
              "name": "_status",
              "type": "bool"
            },
            {
              "internalType": "uint256",
              "name": "_amount",
              "type": "uint256"
            },
            {
              "internalType": "string",
              "name": "_bankCode",
              "type": "string"
            },
            {
              "internalType": "string",
              "name": "_paidAt",
              "type": "string"
            },
            {
              "internalType": "string",
              "name": "_payerEmail",
              "type": "string"
            },
            {
              "internalType": "string",
              "name": "_description",
              "type": "string"
            },
            {
              "internalType": "string",
              "name": "_currency",
              "type": "string"
            },
            {
              "internalType": "string",
              "name": "_paymentChannel",
              "type": "string"
            }
          ],
          "internalType": "struct Zakat.PG[]",
          "name": "",
          "type": "tuple[]"
        }
      ],
      "stateMutability": "view",
      "type": "function",
      "constant": true
    },
    {
      "inputs": [
        {
          "internalType": "address",
          "name": "_walletAddress",
          "type": "address"
        }
      ],
      "name": "checkPayment",
      "outputs": [
        {
          "internalType": "bool",
          "name": "",
          "type": "bool"
        }
      ],
      "stateMutability": "view",
      "type": "function",
      "constant": true
    },
    {
      "inputs": [
        {
          "internalType": "string",
          "name": "_ipfsHash",
          "type": "string"
        }
      ],
      "name": "verifyFile",
      "outputs": [
        {
          "internalType": "bool",
          "name": "",
          "type": "bool"
        }
      ],
      "stateMutability": "view",
      "type": "function",
      "constant": true
    }
  ],
  "bytecode": "0x608060405234801561001057600080fd5b5033600160006101000a81548173ffffffffffffffffffffffffffffffffffffffff021916908373ffffffffffffffffffffffffffffffffffffffff160217905550613574806100616000396000f3fe608060405234801561001057600080fd5b506004361061009e5760003560e01c80636d4f531c116100665780636d4f531c14610163578063803968111461017f5780638d001087146101b2578063b0271023146101ec578063c437019e1461021c5761009e565b806315411b21146100a357806316936d7f146100bf5780633b56fdc6146100dd5780633d9bf0931461010d5780635960b81e1461012b575b600080fd5b6100bd60048036038101906100b891906122f1565b610238565b005b6100c76103dd565b6040516100d49190612600565b60405180910390f35b6100f760048036038101906100f2919061264e565b610812565b604051610104919061268a565b60405180910390f35b61011561092c565b604051610122919061288e565b60405180910390f35b610145600480360381019061014091906128dc565b610f49565b60405161015a99989796959493929190612971565b60405180910390f35b61017d60048036038101906101789190612a4d565b61127c565b005b6101996004803603810190610194919061264e565b611487565b6040516101a99493929190612dae565b60405180910390f35b6101cc60048036038101906101c791906128dc565b61195e565b6040516101e39b9a99989796959493929190612e0f565b60405180910390f35b61020660048036038101906102019190612ef9565b611e9d565b604051610213919061268a565b60405180910390f35b61023660048036038101906102319190612f42565b611f51565b005b600160009054906101000a900473ffffffffffffffffffffffffffffffffffffffff1673ffffffffffffffffffffffffffffffffffffffff163373ffffffffffffffffffffffffffffffffffffffff16146102c8576040517f08c379a00000000000000000000000000000000000000000000000000000000081526004016102bf90613079565b60405180910390fd5b60005b6002805490508110156103d857826040516020016102e991906130d5565b6040516020818303038152906040528051906020012060028281548110610313576103126130ec565b5b90600052602060002090600902016001016040516020016103349190613213565b60405160208183030381529060405280519060200120036103c557600160028281548110610365576103646130ec565b5b906000526020600020906009020160070160006101000a81548160ff02191690831515021790555081600282815481106103a2576103a16130ec565b5b906000526020600020906009020160080190816103bf91906133c1565b506103d8565b80806103d0906134c2565b9150506102cb565b505050565b6060600060028054905067ffffffffffffffff811115610400576103ff6121c6565b5b60405190808252806020026020018201604052801561043957816020015b6104266120d7565b81526020019060019003908161041e5790505b50905060005b60028054905081101561080a57600281815481106104605761045f6130ec565b5b9060005260206000209060090201604051806101200160405290816000820160009054906101000a900473ffffffffffffffffffffffffffffffffffffffff1673ffffffffffffffffffffffffffffffffffffffff1673ffffffffffffffffffffffffffffffffffffffff1681526020016001820180546104e09061314a565b80601f016020809104026020016040519081016040528092919081815260200182805461050c9061314a565b80156105595780601f1061052e57610100808354040283529160200191610559565b820191906000526020600020905b81548152906001019060200180831161053c57829003601f168201915b505050505081526020016002820180546105729061314a565b80601f016020809104026020016040519081016040528092919081815260200182805461059e9061314a565b80156105eb5780601f106105c0576101008083540402835291602001916105eb565b820191906000526020600020905b8154815290600101906020018083116105ce57829003601f168201915b505050505081526020016003820180546106049061314a565b80601f01602080910402602001604051908101604052809291908181526020018280546106309061314a565b801561067d5780601f106106525761010080835404028352916020019161067d565b820191906000526020600020905b81548152906001019060200180831161066057829003601f168201915b505050505081526020016004820180546106969061314a565b80601f01602080910402602001604051908101604052809291908181526020018280546106c29061314a565b801561070f5780601f106106e45761010080835404028352916020019161070f565b820191906000526020600020905b8154815290600101906020018083116106f257829003601f168201915b5050505050815260200160058201548152602001600682015481526020016007820160009054906101000a900460ff161515151581526020016008820180546107579061314a565b80601f01602080910402602001604051908101604052809291908181526020018280546107839061314a565b80156107d05780601f106107a5576101008083540402835291602001916107d0565b820191906000526020600020905b8154815290600101906020018083116107b357829003601f168201915b5050505050815250508282815181106107ec576107eb6130ec565b5b60200260200101819052508080610802906134c2565b91505061043f565b508091505090565b60008060009050600062278d00905060005b600280549050811015610913578473ffffffffffffffffffffffffffffffffffffffff166002828154811061085c5761085b6130ec565b5b906000526020600020906009020160000160009054906101000a900473ffffffffffffffffffffffffffffffffffffffff1673ffffffffffffffffffffffffffffffffffffffff16036109005782600282815481106108be576108bd6130ec565b5b90600052602060002090600902016006015411156108ff57600281815481106108ea576108e96130ec565b5b90600052602060002090600902016006015492505b5b808061090b906134c2565b915050610824565b50808242610921919061350a565b101592505050919050565b6060600060038054905067ffffffffffffffff81111561094f5761094e6121c6565b5b60405190808252806020026020018201604052801561098857816020015b61097561213b565b81526020019060019003908161096d5790505b50905060005b600380549050811015610f4157600381815481106109af576109ae6130ec565b5b90600052602060002090600b0201604051806101600160405290816000820180546109d99061314a565b80601f0160208091040260200160405190810160405280929190818152602001828054610a059061314a565b8015610a525780601f10610a2757610100808354040283529160200191610a52565b820191906000526020600020905b815481529060010190602001808311610a3557829003601f168201915b50505050508152602001600182018054610a6b9061314a565b80601f0160208091040260200160405190810160405280929190818152602001828054610a979061314a565b8015610ae45780601f10610ab957610100808354040283529160200191610ae4565b820191906000526020600020905b815481529060010190602001808311610ac757829003601f168201915b50505050508152602001600282018054610afd9061314a565b80601f0160208091040260200160405190810160405280929190818152602001828054610b299061314a565b8015610b765780601f10610b4b57610100808354040283529160200191610b76565b820191906000526020600020905b815481529060010190602001808311610b5957829003601f168201915b505050505081526020016003820160009054906101000a900460ff1615151515815260200160048201548152602001600582018054610bb49061314a565b80601f0160208091040260200160405190810160405280929190818152602001828054610be09061314a565b8015610c2d5780601f10610c0257610100808354040283529160200191610c2d565b820191906000526020600020905b815481529060010190602001808311610c1057829003601f168201915b50505050508152602001600682018054610c469061314a565b80601f0160208091040260200160405190810160405280929190818152602001828054610c729061314a565b8015610cbf5780601f10610c9457610100808354040283529160200191610cbf565b820191906000526020600020905b815481529060010190602001808311610ca257829003601f168201915b50505050508152602001600782018054610cd89061314a565b80601f0160208091040260200160405190810160405280929190818152602001828054610d049061314a565b8015610d515780601f10610d2657610100808354040283529160200191610d51565b820191906000526020600020905b815481529060010190602001808311610d3457829003601f168201915b50505050508152602001600882018054610d6a9061314a565b80601f0160208091040260200160405190810160405280929190818152602001828054610d969061314a565b8015610de35780601f10610db857610100808354040283529160200191610de3565b820191906000526020600020905b815481529060010190602001808311610dc657829003601f168201915b50505050508152602001600982018054610dfc9061314a565b80601f0160208091040260200160405190810160405280929190818152602001828054610e289061314a565b8015610e755780601f10610e4a57610100808354040283529160200191610e75565b820191906000526020600020905b815481529060010190602001808311610e5857829003601f168201915b50505050508152602001600a82018054610e8e9061314a565b80601f0160208091040260200160405190810160405280929190818152602001828054610eba9061314a565b8015610f075780601f10610edc57610100808354040283529160200191610f07565b820191906000526020600020905b815481529060010190602001808311610eea57829003601f168201915b505050505081525050828281518110610f2357610f226130ec565b5b60200260200101819052508080610f39906134c2565b91505061098e565b508091505090565b60028181548110610f5957600080fd5b90600052602060002090600902016000915090508060000160009054906101000a900473ffffffffffffffffffffffffffffffffffffffff1690806001018054610fa29061314a565b80601f0160208091040260200160405190810160405280929190818152602001828054610fce9061314a565b801561101b5780601f10610ff05761010080835404028352916020019161101b565b820191906000526020600020905b815481529060010190602001808311610ffe57829003601f168201915b5050505050908060020180546110309061314a565b80601f016020809104026020016040519081016040528092919081815260200182805461105c9061314a565b80156110a95780601f1061107e576101008083540402835291602001916110a9565b820191906000526020600020905b81548152906001019060200180831161108c57829003601f168201915b5050505050908060030180546110be9061314a565b80601f01602080910402602001604051908101604052809291908181526020018280546110ea9061314a565b80156111375780601f1061110c57610100808354040283529160200191611137565b820191906000526020600020905b81548152906001019060200180831161111a57829003601f168201915b50505050509080600401805461114c9061314a565b80601f01602080910402602001604051908101604052809291908181526020018280546111789061314a565b80156111c55780601f1061119a576101008083540402835291602001916111c5565b820191906000526020600020905b8154815290600101906020018083116111a857829003601f168201915b5050505050908060050154908060060154908060070160009054906101000a900460ff16908060080180546111f99061314a565b80601f01602080910402602001604051908101604052809291908181526020018280546112259061314a565b80156112725780601f1061124757610100808354040283529160200191611272565b820191906000526020600020905b81548152906001019060200180831161125557829003601f168201915b5050505050905089565b600160009054906101000a900473ffffffffffffffffffffffffffffffffffffffff1673ffffffffffffffffffffffffffffffffffffffff163373ffffffffffffffffffffffffffffffffffffffff161461130c576040517f08c379a000000000000000000000000000000000000000000000000000000000815260040161130390613079565b60405180910390fd5b60036040518061016001604052808d81526020018c81526020018b81526020018a151581526020018981526020018881526020018781526020018681526020018581526020018481526020018381525090806001815401808255809150506001900390600052602060002090600b0201600090919091909150600082015181600001908161139a91906133c1565b5060208201518160010190816113b091906133c1565b5060408201518160020190816113c691906133c1565b5060608201518160030160006101000a81548160ff0219169083151502179055506080820151816004015560a082015181600501908161140691906133c1565b5060c082015181600601908161141c91906133c1565b5060e082015181600701908161143291906133c1565b5061010082015181600801908161144991906133c1565b5061012082015181600901908161146091906133c1565b5061014082015181600a01908161147791906133c1565b5050505050505050505050505050565b6060806060806000805b600280549050811015611538578673ffffffffffffffffffffffffffffffffffffffff16600282815481106114c9576114c86130ec565b5b906000526020600020906009020160000160009054906101000a900473ffffffffffffffffffffffffffffffffffffffff1673ffffffffffffffffffffffffffffffffffffffff1603611525578180611521906134c2565b9250505b8080611530906134c2565b915050611491565b5060008167ffffffffffffffff811115611555576115546121c6565b5b60405190808252806020026020018201604052801561158857816020015b60608152602001906001900390816115735790505b50905060008267ffffffffffffffff8111156115a7576115a66121c6565b5b6040519080825280602002602001820160405280156115da57816020015b60608152602001906001900390816115c55790505b50905060008367ffffffffffffffff8111156115f9576115f86121c6565b5b6040519080825280602002602001820160405280156116275781602001602082028036833780820191505090505b50905060008467ffffffffffffffff811115611646576116456121c6565b5b6040519080825280602002602001820160405280156116745781602001602082028036833780820191505090505b5090506000805b600280549050811015611944578b73ffffffffffffffffffffffffffffffffffffffff16600282815481106116b3576116b26130ec565b5b906000526020600020906009020160000160009054906101000a900473ffffffffffffffffffffffffffffffffffffffff1673ffffffffffffffffffffffffffffffffffffffff16036119315760028181548110611714576117136130ec565b5b906000526020600020906009020160010180546117309061314a565b80601f016020809104026020016040519081016040528092919081815260200182805461175c9061314a565b80156117a95780601f1061177e576101008083540402835291602001916117a9565b820191906000526020600020905b81548152906001019060200180831161178c57829003601f168201915b50505050508683815181106117c1576117c06130ec565b5b6020026020010181905250600281815481106117e0576117df6130ec565b5b906000526020600020906009020160060154848381518110611805576118046130ec565b5b60200260200101818152505060028181548110611825576118246130ec565b5b90600052602060002090600902016005015483838151811061184a576118496130ec565b5b6020026020010181815250506002818154811061186a576118696130ec565b5b906000526020600020906009020160080180546118869061314a565b80601f01602080910402602001604051908101604052809291908181526020018280546118b29061314a565b80156118ff5780601f106118d4576101008083540402835291602001916118ff565b820191906000526020600020905b8154815290600101906020018083116118e257829003601f168201915b5050505050858381518110611917576119166130ec565b5b6020026020010181905250818061192d906134c2565b9250505b808061193c906134c2565b91505061167b565b508483838699509950995099505050505050509193509193565b6003818154811061196e57600080fd5b90600052602060002090600b02016000915090508060000180546119919061314a565b80601f01602080910402602001604051908101604052809291908181526020018280546119bd9061314a565b8015611a0a5780601f106119df57610100808354040283529160200191611a0a565b820191906000526020600020905b8154815290600101906020018083116119ed57829003601f168201915b505050505090806001018054611a1f9061314a565b80601f0160208091040260200160405190810160405280929190818152602001828054611a4b9061314a565b8015611a985780601f10611a6d57610100808354040283529160200191611a98565b820191906000526020600020905b815481529060010190602001808311611a7b57829003601f168201915b505050505090806002018054611aad9061314a565b80601f0160208091040260200160405190810160405280929190818152602001828054611ad99061314a565b8015611b265780601f10611afb57610100808354040283529160200191611b26565b820191906000526020600020905b815481529060010190602001808311611b0957829003601f168201915b5050505050908060030160009054906101000a900460ff1690806004015490806005018054611b549061314a565b80601f0160208091040260200160405190810160405280929190818152602001828054611b809061314a565b8015611bcd5780601f10611ba257610100808354040283529160200191611bcd565b820191906000526020600020905b815481529060010190602001808311611bb057829003601f168201915b505050505090806006018054611be29061314a565b80601f0160208091040260200160405190810160405280929190818152602001828054611c0e9061314a565b8015611c5b5780601f10611c3057610100808354040283529160200191611c5b565b820191906000526020600020905b815481529060010190602001808311611c3e57829003601f168201915b505050505090806007018054611c709061314a565b80601f0160208091040260200160405190810160405280929190818152602001828054611c9c9061314a565b8015611ce95780601f10611cbe57610100808354040283529160200191611ce9565b820191906000526020600020905b815481529060010190602001808311611ccc57829003601f168201915b505050505090806008018054611cfe9061314a565b80601f0160208091040260200160405190810160405280929190818152602001828054611d2a9061314a565b8015611d775780601f10611d4c57610100808354040283529160200191611d77565b820191906000526020600020905b815481529060010190602001808311611d5a57829003601f168201915b505050505090806009018054611d8c9061314a565b80601f0160208091040260200160405190810160405280929190818152602001828054611db89061314a565b8015611e055780601f10611dda57610100808354040283529160200191611e05565b820191906000526020600020905b815481529060010190602001808311611de857829003601f168201915b50505050509080600a018054611e1a9061314a565b80601f0160208091040260200160405190810160405280929190818152602001828054611e469061314a565b8015611e935780601f10611e6857610100808354040283529160200191611e93565b820191906000526020600020905b815481529060010190602001808311611e7657829003601f168201915b505050505090508b565b6000806000905060005b600280549050811015611f475783604051602001611ec591906130d5565b6040516020818303038152906040528051906020012060028281548110611eef57611eee6130ec565b5b9060005260206000209060090201600801604051602001611f109190613213565b6040516020818303038152906040528051906020012003611f345760019150611f47565b8080611f3f906134c2565b915050611ea7565b5080915050919050565b60026040518061012001604052803373ffffffffffffffffffffffffffffffffffffffff16815260200187815260200186815260200185815260200184815260200183815260200142815260200160001515815260200160405180602001604052806000815250815250908060018154018082558091505060019003906000526020600020906009020160009091909190915060008201518160000160006101000a81548173ffffffffffffffffffffffffffffffffffffffff021916908373ffffffffffffffffffffffffffffffffffffffff160217905550602082015181600101908161204091906133c1565b50604082015181600201908161205691906133c1565b50606082015181600301908161206c91906133c1565b50608082015181600401908161208291906133c1565b5060a0820151816005015560c0820151816006015560e08201518160070160006101000a81548160ff0219169083151502179055506101008201518160080190816120cd91906133c1565b5050505050505050565b604051806101200160405280600073ffffffffffffffffffffffffffffffffffffffff168152602001606081526020016060815260200160608152602001606081526020016000815260200160008152602001600015158152602001606081525090565b604051806101600160405280606081526020016060815260200160608152602001600015158152602001600081526020016060815260200160608152602001606081526020016060815260200160608152602001606081525090565b6000604051905090565b600080fd5b600080fd5b600080fd5b600080fd5b6000601f19601f8301169050919050565b7f4e487b7100000000000000000000000000000000000000000000000000000000600052604160045260246000fd5b6121fe826121b5565b810181811067ffffffffffffffff8211171561221d5761221c6121c6565b5b80604052505050565b6000612230612197565b905061223c82826121f5565b919050565b600067ffffffffffffffff82111561225c5761225b6121c6565b5b612265826121b5565b9050602081019050919050565b82818337600083830152505050565b600061229461228f84612241565b612226565b9050828152602081018484840111156122b0576122af6121b0565b5b6122bb848285612272565b509392505050565b600082601f8301126122d8576122d76121ab565b5b81356122e8848260208601612281565b91505092915050565b60008060408385031215612308576123076121a1565b5b600083013567ffffffffffffffff811115612326576123256121a6565b5b612332858286016122c3565b925050602083013567ffffffffffffffff811115612353576123526121a6565b5b61235f858286016122c3565b9150509250929050565b600081519050919050565b600082825260208201905092915050565b6000819050602082019050919050565b600073ffffffffffffffffffffffffffffffffffffffff82169050919050565b60006123c082612395565b9050919050565b6123d0816123b5565b82525050565b600081519050919050565b600082825260208201905092915050565b60005b838110156124105780820151818401526020810190506123f5565b60008484015250505050565b6000612427826123d6565b61243181856123e1565b93506124418185602086016123f2565b61244a816121b5565b840191505092915050565b6000819050919050565b61246881612455565b82525050565b60008115159050919050565b6124838161246e565b82525050565b6000610120830160008301516124a260008601826123c7565b50602083015184820360208601526124ba828261241c565b915050604083015184820360408601526124d4828261241c565b915050606083015184820360608601526124ee828261241c565b91505060808301518482036080860152612508828261241c565b91505060a083015161251d60a086018261245f565b5060c083015161253060c086018261245f565b5060e083015161254360e086018261247a565b5061010083015184820361010086015261255d828261241c565b9150508091505092915050565b60006125768383612489565b905092915050565b6000602082019050919050565b600061259682612369565b6125a08185612374565b9350836020820285016125b285612385565b8060005b858110156125ee57848403895281516125cf858261256a565b94506125da8361257e565b925060208a019950506001810190506125b6565b50829750879550505050505092915050565b6000602082019050818103600083015261261a818461258b565b905092915050565b61262b816123b5565b811461263657600080fd5b50565b60008135905061264881612622565b92915050565b600060208284031215612664576126636121a1565b5b600061267284828501612639565b91505092915050565b6126848161246e565b82525050565b600060208201905061269f600083018461267b565b92915050565b600081519050919050565b600082825260208201905092915050565b6000819050602082019050919050565b60006101608301600083015184820360008601526126ef828261241c565b91505060208301518482036020860152612709828261241c565b91505060408301518482036040860152612723828261241c565b9150506060830151612738606086018261247a565b50608083015161274b608086018261245f565b5060a083015184820360a0860152612763828261241c565b91505060c083015184820360c086015261277d828261241c565b91505060e083015184820360e0860152612797828261241c565b9150506101008301518482036101008601526127b3828261241c565b9150506101208301518482036101208601526127cf828261241c565b9150506101408301518482036101408601526127eb828261241c565b9150508091505092915050565b600061280483836126d1565b905092915050565b6000602082019050919050565b6000612824826126a5565b61282e81856126b0565b935083602082028501612840856126c1565b8060005b8581101561287c578484038952815161285d85826127f8565b94506128688361280c565b925060208a01995050600181019050612844565b50829750879550505050505092915050565b600060208201905081810360008301526128a88184612819565b905092915050565b6128b981612455565b81146128c457600080fd5b50565b6000813590506128d6816128b0565b92915050565b6000602082840312156128f2576128f16121a1565b5b6000612900848285016128c7565b91505092915050565b612912816123b5565b82525050565b600082825260208201905092915050565b6000612934826123d6565b61293e8185612918565b935061294e8185602086016123f2565b612957816121b5565b840191505092915050565b61296b81612455565b82525050565b600061012082019050612987600083018c612909565b8181036020830152612999818b612929565b905081810360408301526129ad818a612929565b905081810360608301526129c18189612929565b905081810360808301526129d58188612929565b90506129e460a0830187612962565b6129f160c0830186612962565b6129fe60e083018561267b565b818103610100830152612a118184612929565b90509a9950505050505050505050565b612a2a8161246e565b8114612a3557600080fd5b50565b600081359050612a4781612a21565b92915050565b60008060008060008060008060008060006101608c8e031215612a7357612a726121a1565b5b60008c013567ffffffffffffffff811115612a9157612a906121a6565b5b612a9d8e828f016122c3565b9b505060208c013567ffffffffffffffff811115612abe57612abd6121a6565b5b612aca8e828f016122c3565b9a505060408c013567ffffffffffffffff811115612aeb57612aea6121a6565b5b612af78e828f016122c3565b9950506060612b088e828f01612a38565b9850506080612b198e828f016128c7565b97505060a08c013567ffffffffffffffff811115612b3a57612b396121a6565b5b612b468e828f016122c3565b96505060c08c013567ffffffffffffffff811115612b6757612b666121a6565b5b612b738e828f016122c3565b95505060e08c013567ffffffffffffffff811115612b9457612b936121a6565b5b612ba08e828f016122c3565b9450506101008c013567ffffffffffffffff811115612bc257612bc16121a6565b5b612bce8e828f016122c3565b9350506101208c013567ffffffffffffffff811115612bf057612bef6121a6565b5b612bfc8e828f016122c3565b9250506101408c013567ffffffffffffffff811115612c1e57612c1d6121a6565b5b612c2a8e828f016122c3565b9150509295989b509295989b9093969950565b600081519050919050565b600082825260208201905092915050565b6000819050602082019050919050565b6000612c75838361241c565b905092915050565b6000602082019050919050565b6000612c9582612c3d565b612c9f8185612c48565b935083602082028501612cb185612c59565b8060005b85811015612ced5784840389528151612cce8582612c69565b9450612cd983612c7d565b925060208a01995050600181019050612cb5565b50829750879550505050505092915050565b600081519050919050565b600082825260208201905092915050565b6000819050602082019050919050565b6000612d37838361245f565b60208301905092915050565b6000602082019050919050565b6000612d5b82612cff565b612d658185612d0a565b9350612d7083612d1b565b8060005b83811015612da1578151612d888882612d2b565b9750612d9383612d43565b925050600181019050612d74565b5085935050505092915050565b60006080820190508181036000830152612dc88187612c8a565b90508181036020830152612ddc8186612d50565b90508181036040830152612df08185612d50565b90508181036060830152612e048184612c8a565b905095945050505050565b6000610160820190508181036000830152612e2a818e612929565b90508181036020830152612e3e818d612929565b90508181036040830152612e52818c612929565b9050612e61606083018b61267b565b612e6e608083018a612962565b81810360a0830152612e808189612929565b905081810360c0830152612e948188612929565b905081810360e0830152612ea88187612929565b9050818103610100830152612ebd8186612929565b9050818103610120830152612ed28185612929565b9050818103610140830152612ee78184612929565b90509c9b505050505050505050505050565b600060208284031215612f0f57612f0e6121a1565b5b600082013567ffffffffffffffff811115612f2d57612f2c6121a6565b5b612f39848285016122c3565b91505092915050565b600080600080600060a08688031215612f5e57612f5d6121a1565b5b600086013567ffffffffffffffff811115612f7c57612f7b6121a6565b5b612f88888289016122c3565b955050602086013567ffffffffffffffff811115612fa957612fa86121a6565b5b612fb5888289016122c3565b945050604086013567ffffffffffffffff811115612fd657612fd56121a6565b5b612fe2888289016122c3565b935050606086013567ffffffffffffffff811115613003576130026121a6565b5b61300f888289016122c3565b9250506080613020888289016128c7565b9150509295509295909350565b7f416e646120746964616b206d656d696c696b6920616b73657300000000000000600082015250565b6000613063601983612918565b915061306e8261302d565b602082019050919050565b6000602082019050818103600083015261309281613056565b9050919050565b600081905092915050565b60006130af826123d6565b6130b98185613099565b93506130c98185602086016123f2565b80840191505092915050565b60006130e182846130a4565b915081905092915050565b7f4e487b7100000000000000000000000000000000000000000000000000000000600052603260045260246000fd5b7f4e487b7100000000000000000000000000000000000000000000000000000000600052602260045260246000fd5b6000600282049050600182168061316257607f821691505b6020821081036131755761317461311b565b5b50919050565b60008190508160005260206000209050919050565b6000815461319d8161314a565b6131a78186613099565b945060018216600081146131c257600181146131d75761320a565b60ff198316865281151582028601935061320a565b6131e08561317b565b60005b83811015613202578154818901526001820191506020810190506131e3565b838801955050505b50505092915050565b600061321f8284613190565b915081905092915050565b60006020601f8301049050919050565b600082821b905092915050565b6000600883026132777fffffffffffffffffffffffffffffffffffffffffffffffffffffffffffffffff8261323a565b613281868361323a565b95508019841693508086168417925050509392505050565b6000819050919050565b60006132be6132b96132b484612455565b613299565b612455565b9050919050565b6000819050919050565b6132d8836132a3565b6132ec6132e4826132c5565b848454613247565b825550505050565b600090565b6133016132f4565b61330c8184846132cf565b505050565b5b81811015613330576133256000826132f9565b600181019050613312565b5050565b601f821115613375576133468161317b565b61334f8461322a565b8101602085101561335e578190505b61337261336a8561322a565b830182613311565b50505b505050565b600082821c905092915050565b60006133986000198460080261337a565b1980831691505092915050565b60006133b18383613387565b9150826002028217905092915050565b6133ca826123d6565b67ffffffffffffffff8111156133e3576133e26121c6565b5b6133ed825461314a565b6133f8828285613334565b600060209050601f83116001811461342b5760008415613419578287015190505b61342385826133a5565b86555061348b565b601f1984166134398661317b565b60005b828110156134615784890151825560018201915060208501945060208101905061343c565b8683101561347e578489015161347a601f891682613387565b8355505b6001600288020188555050505b505050505050565b7f4e487b7100000000000000000000000000000000000000000000000000000000600052601160045260246000fd5b60006134cd82612455565b91507fffffffffffffffffffffffffffffffffffffffffffffffffffffffffffffffff82036134ff576134fe613493565b5b600182019050919050565b600061351582612455565b915061352083612455565b925082820390508181111561353857613537613493565b5b9291505056fea26469706673582212209bfc604231260ac550df27018997400a395a5792a379341783271870acd9187564736f6c63430008110033",
  "immutableReferences": {},
  "source": "// SPDX-License-Identifier: Unlicensed\n\npragma solidity ^0.8.7;\n\ncontract Zakat {\n    uint256 currentTime;\n    address owner;\n\n    constructor() {\n        owner = msg.sender;\n    }\n\n    struct ZakatIVC {\n        address walletAddress;\n        string zakatID;\n        string name;\n        string email;\n        string phoneNum;\n        uint256 amount;\n        uint256 date;\n        bool statusPayment;\n        string ipfsHash;\n    }\n\n    struct PG {\n        string _id;\n        string _extID;\n        string _paymentMethod;\n        bool _status;\n        uint256 _amount;\n        string _bankCode;\n        string _paidAt;\n        string _payerEmail;\n        string _description;\n        string _currency;\n        string _paymentChannel;\n    }\n\n    ZakatIVC[] public zvoice;\n    PG[] public pg;\n\n    // Zakat Invoice Struct\n    function store(\n        string memory _zakatID,\n        string memory _name,\n        string memory _email,\n        string memory _phoneNum,\n        uint256 _amount\n    ) public {\n        // bool status = checkPayment(msg.sender);\n        // require(status == true, \"Tunggu bulan berikutnya\");\n        zvoice.push(\n            ZakatIVC(\n                msg.sender,\n                _zakatID,\n                _name,\n                _email,\n                _phoneNum,\n                _amount,\n                block.timestamp,\n                false,\n                \"\"\n            )\n        );\n    }\n\n    function updateIPFS(string memory _zakatID, string memory _ipfsHash)\n        public\n    {\n        require(msg.sender == owner, \"Anda tidak memiliki akses\");\n        for (uint256 i = 0; i < zvoice.length; i++) {\n            if (\n                keccak256(abi.encodePacked(zvoice[i].zakatID)) ==\n                keccak256(abi.encodePacked(_zakatID))\n            ) {\n                zvoice[i].statusPayment = true;\n                zvoice[i].ipfsHash = _ipfsHash;\n                break;\n            }\n        }\n    }\n\n    function getZakat() public view returns (ZakatIVC[] memory) {\n        ZakatIVC[] memory result = new ZakatIVC[](zvoice.length);\n        for (uint256 i = 0; i < zvoice.length; i++) {\n            result[i] = zvoice[i];\n        }\n        return result;\n    }\n\n    function getHistory(address _walletAddress)\n        public\n        view\n        returns (\n            string[] memory,\n            uint256[] memory,\n            uint256[] memory,\n            string[] memory\n        )\n    {\n        uint256 count = 0;\n        for (uint256 j = 0; j < zvoice.length; j++) {\n            if (zvoice[j].walletAddress == _walletAddress) {\n                count++;\n            }\n        }\n        string[] memory _zakatID = new string[](count);\n        string[] memory _ipfsHash = new string[](count);\n        uint256[] memory _date = new uint256[](count);\n        uint256[] memory _amount = new uint256[](count);\n        uint256 i = 0;\n        for (uint256 j = 0; j < zvoice.length; j++) {\n            if (zvoice[j].walletAddress == _walletAddress) {\n                _zakatID[i] = zvoice[j].zakatID;\n                _date[i] = zvoice[j].date;\n                _amount[i] = zvoice[j].amount;\n                _ipfsHash[i] = zvoice[j].ipfsHash;\n                i++;\n            }\n        }\n        return (_zakatID, _date, _amount, _ipfsHash);\n    }\n\n    // Payment Gateway Struct\n    function storePG(\n        string memory _id,\n        string memory _extID,\n        string memory _paymentMethod,\n        bool _status,\n        uint256 _amount,\n        string memory _bankCode,\n        string memory _paidAt,\n        string memory _payerEmail,\n        string memory _description,\n        string memory _currency,\n        string memory _paymentChannel\n    ) public {\n        require(msg.sender == owner, \"Anda tidak memiliki akses\");\n        pg.push(\n            PG(\n                _id,\n                _extID,\n                _paymentMethod,\n                _status,\n                _amount,\n                _bankCode,\n                _paidAt,\n                _payerEmail,\n                _description,\n                _currency,\n                _paymentChannel\n            )\n        );\n    }\n\n    function getPG() public view returns (PG[] memory) {\n        PG[] memory result = new PG[](pg.length);\n        for (uint256 i = 0; i < pg.length; i++) {\n            result[i] = pg[i];\n        }\n        return result;\n    }\n\n    // ETC\n    function checkPayment(address _walletAddress) public view returns (bool) {\n        uint256 lastPayment = 0;\n        uint256 oneMonthInSeconds = 2592000; // 30 d x 24 h x 60 m x 60 s\n        for (uint256 i = 0; i < zvoice.length; i++) {\n            if (zvoice[i].walletAddress == _walletAddress) {\n                if (zvoice[i].date > lastPayment) {\n                    lastPayment = zvoice[i].date;\n                }\n            }\n        }\n        return (block.timestamp - lastPayment >= oneMonthInSeconds);\n    }\n\n    function verifyFile(string memory _ipfsHash) public view returns (bool) {\n        bool valid = false;\n        for (uint256 i = 0; i < zvoice.length; i++) {\n            if (\n                keccak256(abi.encodePacked(zvoice[i].ipfsHash)) ==\n                keccak256(abi.encodePacked(_ipfsHash))\n            ) {\n                valid = true;\n                break;\n            }\n        }\n        return valid;\n    }\n}\n",
  "sourcePath": "/home/ardias/Desktop/Development/Blockchain/TA/zakat/contracts/Zakat.sol",
  "compiler": {
    "name": "solc",
    "version": "0.8.17+commit.8df45f5f.Emscripten.clang"
  },
  "schemaVersion": "3.4.11",
  "updatedAt": "2023-03-18T14:01:41.686Z",
  "networkType": "ethereum",
  "devdoc": {
    "kind": "dev",
    "methods": {},
    "version": 1
  },
  "userdoc": {
    "kind": "user",
    "methods": {},
    "version": 1
  }
}